:020000020000FC
:200000000040003408608C140800683A0000000000000000000000000000000000000000BA
:20000800DEFFED04DFC00015D8400215D8800315D8C00415D9000515D9400615D98007156A
:20001000D9C00815000B307ADA000915DA400A15DA800B15DAC00C15DB000D15DB400E15C4
:20001800DB800F15DBC01015D9401115EBFFFF04DBC012150009313A2880004C10000326FA
:200020002000022600080FC000000706DF401215E8BFFF17E93FFF0400081D001000021E11
:20002800EBFFFF04DBC01215D9401117DF401217DFC000172801707AD8400217D880031714
:20003000D8C00417D9000517D9400617D9800717D9C00817DA000917DA400A17DA800B17F2
:20003800DAC00C17DB000D17DB400E17DB800F17DBC01017DEC01304EF80083ADEFFF90429
:20004000DFC00615DF000515DF0005040001883A0005313AE0BFFE15E0BFFE17E0BFFB15BD
:20004800E03FFD1500800044E0BFFC15E0FFFB17E0BFFC171884703A1000142600800074CC
:2000500010AA5004E0FFFD17180690FA10C5883A10C000170080007410AA5004E13FFD1733
:20005800200890FA1105883A10800104108000171009883A183EE83A0001883A0005313A3C
:20006000E0BFFF15E0BFFF1700000706E0BFFC171085883AE0BFFC15E0BFFD1710800044CB
:20006800E0BFFD15003FE106E0BFFB15E0BFFB17103FDB1E0001883A0001883AE037883A9A
:20007000DFC00117DF000017DEC00204F800283ADEFFFB04DFC00415DF000315DF00030454
:20007800E13FFF1500BFFFC4E0BFFD15E03FFE15D0A0C91710000726D0A0C917E0FFFD17FF
:20008000E1BFFE17E17FFF171809883A103EE83A00000206003DA03A0005883AE037883A23
:20008800DFC00117DF000017DEC00204F800283A06C00074DEC0001406800074D6898514CF
:200090000008A2C00008AB00003FFF06DEFFFD04DF000215DF000204E13FFF15E0BFFF174D
:2000980010800037E0BFFE15E0BFFE1710A0000C103FFA26E0BFFE17E037883ADF0000176D
:2000A000DEC00104F800283ADEFFFC04DF000315DF000304E13FFE152805883AE0BFFF05C4
:2000A800E0BFFE171080010410800037E0BFFD15E0BFFD1710BFFFEC103FF926E0BFFE17E8
:2000B000E0FFFF0310C000350001883AE037883ADF000017DEC00104F800283ADEFFFC04DE
:2000B800DFC00315DF000215DF000204E13FFE15E17FFF1500000806E0BFFF1710C0004418
:2000C000E0FFFF151080000310803FCC100B883AE13FFE1700082880E0BFFF1710800003F5
:2000C80010803FCC1080201C10BFE004103FF21E0001883AE037883ADFC00117DF00001756
:2000D000DEC00204F800283ADEFFF604DFC00915DF000815DC000715DF000804E13FFD156D
:2000D800E17FFE15E03FF815E03FF915E0BFFE171000050E00800044E0BFF915E0BFFE1740
:2000E0000085C83AE0BFFE15E0BFFE171000191EE0BFF81710C00044E0FFF815E0FFFA0441
:2000E8001885883A00C00C0410C0000500001306E43FF81780800044E0BFF815E0BFFE1705
:2000F000014002841009883A0008894010800C041007883AE0BFFA041405883A10C00005B7
:2000F800E0BFFE17014002841009883A00088100E0BFFE15E0BFFE1700BFED16E0BFF91732
:2001000010001326E0BFF81710C00044E0FFF815E0FFFA041885883A00C00B4410C00005C8
:2001080000000B06E0BFF81710BFFFC4E0BFF815E0FFFA04E0BFF8171885883A108000035D
:2001100010803FCC100B883AE13FFD1700082880E0BFF81700BFF3160001883AE6FFFF0452
:20011800DFC00217DF000117DC000017DEC00304F800283ADEFFFE04DF000115DF0001046E
:20012000E13FFF15E0BFFF1700C0008410C000350001883AE037883ADF000017DEC0010458
:20012800F800283ADEFFFC04DF000315DF000304E13FFD15E17FFE153005883AE0BFFF0564
:20013000E0BFFE171085883A1085883A1007883AE0BFFD171885883A108400041007883AF1
:20013800E0BFFF03188000350001883AE037883ADF000017DEC00104F800283ADEFFFE04CB
:20014000DF000115DF000104E13FFF15E0BFFF1700C0004410C000350001883AE037883A38
:20014800DF000017DEC00104F800283ADEFFFD04DF000215DF000204E13FFF15E0BFFF1702
:200150001080010410800037E0BFFE15E0BFFE171080008C1004C03A10803FCCE037883A2F
:20015800DF000017DEC00104F800283ADEFFFE04DF000115DF000104E13FFF15E0BFFF17F3
:200160001080020410800037108003CCE037883ADF000017DEC00104F800283ADEFFFD0419
:20016800DF000215DF000204E13FFE15E17FFF15E0BFFF171085883A1085883A1007883AB9
:20017000E0BFFE171885883A1080040410800037E037883ADF000017DEC00104F800283A31
:20017800DEFF3504DFC0CA15DF00C915DF00C90400800074E0BF381500800074108C0E04E8
:20018000E0BF39150140007429687104E13F391700082DC00140007429687204E13F391726
:2001880000082DC00140007429687F04E13F391700082DC00140007429688A04E13F3917F0
:2001900000082DC00140007429689404E13F391700082DC00140007429689E04E13F3917BF
:2001980000082DC0E13F381700084740014000742968AC04E13F391700082DC0E03F37158E
:2001A00000000A06E13F3917000824C01009883AE0FF3C04E0BF37171885883A1100000577
:2001A800E0BF371710800044E0BF3715E0BF37171080C410103FF31E014000742968B704D9
:2001B000E13F391700082DC0E03F371500000F06E0FF3C04E0BF37171885883A108000034C
:2001B80010803FCC1004D07AE0BF3A05E0BF3A03100D883AE17F3717E13F381700084A40E6
:2001C000E0BF371710800044E0BF3715E0BF37171080C410103FEE1EE13F381700084FC041
:2001C8000001883AE13F3817000852C0103FFD26E13F3817000856C0E0BF3B1500C00044D9
:2001D000E0BF3B171886983A00800074108C080410C00035014000742968BC04E13F391797
:2001D80000082DC0E17F3B17E13F391700083480014000742968C204E13F391700082DC0C3
:2001E000E03F371500001806014000742968C604E13F391700082DC0E17F3717E13F3917E3
:2001E80000083480014000742968C704E13F391700082DC0E17F3717E13F3817000859C087
:2001F000100B883AE13F391700083480014000742968C804E13F391700082DC0E0BF371782
:2001F80010800044E0BF3715E0BF371710800290103FE51E014000742968C904E13F391744
:2002000000082DC0E13F381700084740003F970620001B16000F883A28001616200D883AAA
:2002080029001A2E0080080400C000440000010610000D26294B883A10BFFFC418C7883A22
:20021000293FFB360005883A180007260005883A31400236314DC83A10C4B03A1806D07A13
:20021800280AD07A183FFA1E380001260085C83AF800283A014BC83A39C0005C003FE706CC
:200220000109C83A01C00044003FE30600C00044003FEE0620001716000F883A2005883A49
:20022800280012162900162E0180080400C000440000010630000A26294B883A31BFFFC418
:2002300018C7883A293FFB36180005261806D07A114001361145C83A280AD07A183FFB1EFD
:20023800380001260085C83AF800283A014BC83A003FEC060109C83A01C00044003FE706AA
:2002400000C00044003FF106200D883A2900152E280014160080080400C00044000002061F
:2002480010000E2628000516294B883A10BFFFC418C7883A293FFA36180008260005883A01
:2002500031400236314DC83A10C4B03A1806D07A280AD07A183FFA1EF800283A0005883A33
:20025800F800283A00C00044003FF4062005883A2900122E280011160180080400C00044BF
:200260000000020630000C2628000516294B883A31BFFFC418C7883A293FFA36180006266B
:200268001806D07A114001361145C83A280AD07A183FFB1EF800283AF800283A00C000448A
:20027000003FF706DEFFFC04DF000315DF000304E13FFD15E17FFE15E1BFFF15E0FFFE172B
:20027800E0BFFD1718800C2600000806E0BFFE1710C00104E0FFFE15E0FFFD17190001044F
:20028000E13FFD1518C0001710C00015E0FFFE17E0BFFF1718BFF51E0001883AE037883A29
:20028800DF000017DEC00104F800283ADEFFFE04DFC00115DF000015D839883A0180007413
:2002900031A99004014000742968D804010000742129900400089C400180007431A08C0431
:200298000140007429600804010000742120080400089C400180007431A8D80401400074F7
:2002A00029687104010000742128710400089C40000902C0000921800001883AE037883A10
:2002A800DFC00117DF000017DEC00204F800283ADEFFFD04DFC00215DF000115DF0001041E
:2002B0000009883A0008B6000001883A0008B9800180007431A8CB04014000742968CB04EF
:2002B800010000742128CB0400095BC0000915800100007421246E040009E000D0A0C31778
:2002C000D0E0C417D120C517200D883A180B883A1009883A00085E00E0BFFF1501000044B9
:2002C8000008F540E13FFF170009E140DEFFFD04DFC00215DF000115DF000104E13FFF15D8
:2002D000D1600204E13FFF1700090B40E037883ADFC00117DF000017DEC00204F800283AC9
:2002D800DEFFFD04DFC00215DF000115DF000104E13FFF150009AE40008000441001703AEF
:2002E0000001883AE037883ADFC00117DF000017DEC00204F800283ADEFFFE04DFC0011523
:2002E800DF000015D839883A01C0FA0401800084000B883A01000074210C00040008E9C047
:2002F000010000742128D8040008B2C00001883AE037883ADFC00117DF000017DEC00204ED
:2002F800F800283ADEFFFA04DFC00515DF000415DF000404E13FFD15E17FFE15E1BFFF15C0
:20030000E0BFFD1710800017E0BFFC15E0BFFC1710C00A04E0BFFD1710800217100F883A06
:20030800E1BFFF17E17FFE171809883A0008CA40E037883ADFC00117DF000017DEC002048B
:20031000F800283ADEFFFA04DFC00515DF000415DF000404E13FFD15E17FFE15E1BFFF15A7
:20031800E0BFFD1710800017E0BFFC15E0BFFC1710C00A04E0BFFD1710800217100F883AEE
:20032000E1BFFF17E17FFE171809883A0008D900E037883ADFC00117DF000017DEC00204A4
:20032800F800283ADEFFF704DF000815DF000804E13FFC15E17FFD15E1BFFE15E1FFFF1552
:20033000E0BFFC1710800017E0BFF915E0BFFD17E0BFF815E0BFFE17E0FFFD171885883A42
:20033800E0BFFA1500001206E0BFF91710800037E0BFFB15E0BFFB1710A0000C1000062611
:20034000E0BFF81710C00044E0FFF815E0FFFB1710C0000500000606E0FFF817E0BFFD177C
:200348001880071EE0BFFF171090000C1000061EE0FFF817E0BFFA1718BFEB3600000306A4
:200350000001883A000001060001883AE0FFF817E0BFFD1718800426E0FFF817E0BFFD17FC
:200358001885C83A00000606E0BFFF171090000C1000022600BFFD440000010600BFFEC4B9
:20036000E037883ADF000017DEC00104F800283ADEFFF904DF000615DF000604E13FFC15C3
:20036800E17FFD15E1BFFE15E1FFFF15E0BFFC1710800017E0BFFA15E0BFFE17E0FFFD17AE
:200370001885883AE0BFFB1500000E06E0BFFA17108001041080003710BFFFEC1000092646
:20037800E0FFFA17E0BFFD1711000044E13FFD151080000310803FCC1080201C10BFE0048E
:2003800018800035E0FFFD17E0BFFB1718BFEF36E0BFFE17E037883ADF000017DEC00104CA
:20038800F800283ADEFFFA04DFC00515DF000415DF000404E13FFF150007883AE0BFFF17D6
:2003900010C00035E0BFFF1710800104108000370005303AE0BFFD15E0FFFD1700BFFF84E2
:200398001884703A1001703AE0BFFD17E0BFFC1500099DC0E0BFFC17E0BFFE15E0BFFE1763
:2003A0001001703A0001883AE037883ADFC00117DF000017DEC00204F800283ADEFFF80462
:2003A800DFC00715DF000615DF000604E13FFC15E17FFD15E1BFFE15E1FFFF15E0BFFF1798
:2003B000E0BFFB15D0A0C7171000021EE0BFFB17D0A0C715E0BFFC171080010400C001C437
:2003B80010C00035D8000015E1FFFC170180007431A38904E17FFE17E13FFD170009238095
:2003C0000001883AE037883ADFC00117DF000017DEC00204F800283ADEFFFE04DFC0011542
:2003C800DF000015D839883AD0A0051710000326D0A00517103EE83A00000106D0A0CA0448
:2003D000E037883ADFC00117DF000017DEC00204F800283ADEFFFB04DFC00415DF000315FE
:2003D800DF000304E13FFF15E0BFFF171000081601400304E13FFF17000A16801007883A11
:2003E0000080007410A8ED041885883A000001060005883AE0BFFD15E0BFFD171000192680
:2003E800E0BFFD17108000171080041710000626E0BFFD171080001710800417E13FFD177B
:2003F000103EE83A000001060005883AE0BFFE15E13FFF1700098BC0E0BFFE171000070E9A
:2003F8000008F1801007883AE0BFFE170085C83A1880001500BFFFC4000007060005883A55
:20040000000005060008F1801007883A008014441880001500BFFFC4E037883ADFC00117E8
:20040800DF000017DEC00204F800283ADEFFFF04DF000015D839883A0001883AE037883A9D
:20041000DF000017DEC00104F800283ADEFFFC04DF000315DF000304E13FFD15E17FFE157A
:20041800E1BFFF15E0BFFF17E037883ADF000017DEC00104F800283ADEFFFE04DFC00115FB
:20042000DF000015D839883AD0A0051710000326D0A00517103EE83A00000106D0A0CA04EF
:20042800E037883ADFC00117DF000017DEC00204F800283ADEFFFA04DFC00515DF000415A4
:20043000DF000404E13FFE15E17FFF15E0BFFE1710000326E0BFFE17108002171000061EA0
:20043800000907801007883A008005841880001500BFFA8400001306E0BFFE17E0FFFF1786
:20044000E0FFFC15E0BFFD15E0BFFD17E0FFFC1710C00115E0BFFC1710C00017E0BFFD1724
:2004480010C00015E0BFFC1710800017E0FFFD1710C00115E0BFFC17E0FFFD1710C00015F3
:200450000005883AE037883ADFC00117DF000017DEC00204F800283ADEFFFD04DFC00215AD
:20045800DF000115DF0001040080007410A87004E0BFFF1500000606E0BFFF171080001770
:20046000103EE83AE0BFFF1710BFFF04E0BFFF15E0FFFF170080007410A8710418BFF62EC1
:200468000001883AE037883ADFC00117DF000017DEC00204F800283ADEFFFD04DFC0021599
:20047000DF000115DF0001040080007410A87004E0BFFF1500000606E0BFFF171080001758
:20047800103EE83AE0BFFF1710BFFF04E0BFFF15E0FFFF170080007410A8710418BFF62EA9
:200480000001883AE037883ADFC00117DF000017DEC00204F800283ADEFFFF04DF00001541
:20048800D839883A0001883AE037883ADF000017DEC00104F800283ADEFFF904DFC006155E
:20049000DF000515DF000504E13FFC15E17FFD15E1BFFE15E1FFFF15E0800217D88000153B
:20049800E1FFFF17E1BFFE17E17FFD17E13FFC1700093E80E037883ADFC00117DF000017A5
:2004A000DEC00204F800283ADEFFF904DF000615DF000604E13FFE15E17FFF15E0BFFF1725
:2004A800E0BFFA150005303AE0BFFB15E0FFFB1700BFFF841884703A1001703AE0BFFB1783
:2004B000E0BFFC1500C00044E0BFFA171884983A1007883AD0A0C6171884B03AD0A0C61563
:2004B800D0A0C617100170FAE0BFFC17E0BFFD15E0BFFD171001703A0005883A0001883A01
:2004C000E037883ADF000017DEC00104F800283ADEFFF904DF000615DF000604E13FFE1560
:2004C800E17FFF15E0BFFF17E0BFFA150005303AE0BFFB15E0FFFB1700BFFF841884703AA6
:2004D0001001703AE0BFFB17E0BFFC1500C00044E0BFFA171884983A0084303A1007883A07
:2004D800D0A0C6171884703AD0A0C615D0A0C617100170FAE0BFFC17E0BFFD15E0BFFD1748
:2004E0001001703A0005883A0001883AE037883ADF000017DEC00104F800283ADEFFFC040E
:2004E800DF000315DF000304E13FFE15E17FFF15000530FAE0BFFD1500C00044E0BFFF17D7
:2004F0001884983A1007883AE0BFFD171884703A1004C03A10803FCCE037883ADF00001734
:2004F800DEC00104F800283ADEFFF504DFC00A15DF000915DF000904E13FFC15E17FFD15C7
:20050000E1BFFE15E1FFFF1500BFFA84E0BFF715E0BFFD17E0BFF815E0BFF817108008089F
:200508001000271E0005303AE0BFFB15E0FFFB1700BFFF841884703A1001703AE0BFFB177B
:20051000E0BFFA150080007410AA5004E0FFF817180690FA10C5883AE0FFFE1710C0001515
:200518000080007410AA5004E0FFF817180690FA10C5883A10800104E0FFFF1710C0001525
:20052000E0BFFE1710000526E0BFF817100B883AE13FFC170009288000000406E0BFF817A5
:20052800100B883AE13FFC1700093100E0BFF715E0BFFA17E0BFF915E0BFF9171001703AF7
:20053000E0BFF717E037883ADFC00117DF000017DEC00204F800283ADEFFF804DFC00715E6
:20053800DF000615DC000515DF000604E13FFB15E17FFC15E1BFFD15E1FFFE15E1BFFE17CF
:20054000E17FFD17E13FFC1700097600E0BFFA15E0BFFA1710002216040000748428ED04BA
:20054800E0BFFA17014003041009883A000A16808085883A10C00017E0BFFB1710C00015DC
:20055000040000748428ED04E0BFFA17014003041009883A000A16808085883A10800104A7
:2005580010C00017E0BFFB1710C00115040000748428ED04E0BFFA17014003041009883A1D
:20056000000A16808085883A1080020410C00017E0BFFB1710C00215E13FFA1700098BC07A
:200568000001883AE6FFFF04DFC00217DF000117DC000017DEC00304F800283ADEFFFB044B
:20057000DFC00415DF000315DF000304E13FFD15E17FFE15E1BFFF1501C07FC401800044B4
:20057800E17FFD17010000742128F00400094D8001C07FC4000D883AE17FFE1701000074AA
:200580002128ED0400094D8001C07FC401800044E17FFF17010000742128F30400094D8081
:200588000001883AE037883ADFC00117DF000017DEC00204F800283ADEFFFE04DFC0011578
:20059000DF000015D839883AD0A0051710000326D0A00517103EE83A00000106D0A0CA047E
:20059800E037883ADFC00117DF000017DEC00204F800283ADEFFFB04DFC00415DF00031534
:2005A000DC000215DF000304E13FFE15E0BFFE171080021710D00034E0BFFE1710C0021523
:2005A800E03FFD1500002306040000748428ED04E0BFFD17014003041009883A000A16804E
:2005B0008085883A10C00017E0BFFE17108000171880151E040000748428ED04E0BFFD178F
:2005B800014003041009883A000A16808085883A108002041080001710000B0E01400304EB
:2005C000E13FFD17000A16801007883A0080007410A8ED041887883AE0BFFE1718800226FC
:2005C80000BFFCC400000806E0BFFD1710800044E0BFFD15D0A004171007883AE0BFFD1737
:2005D00018BFD92E0005883AE6FFFF04DFC00217DF000117DC000017DEC00304F800283ADD
:2005D800DEFFF604DFC00915DF000815DF000804E13FFD15E17FFE15E1BFFF1500BFFFC4AD
:2005E000E0BFF91500BFFB44E0BFFA15E03FFB15D1600204E13FFD170009B080E0BFF81523
:2005E800E0BFF8171000051EE13FFD170009B980E0BFF81500800044E0BFFB15E0BFF817CF
:2005F00010002B26E13FF8170009CA00E0BFF915E0BFF9171000030EE0BFF917E0BFFA15AE
:2005F8000000250601400304E13FF917000A16801007883A0080007410A8ED041885883ACB
:20060000E0BFFC15E0FFFE170090003410BFFFC41886703AE0BFFC1710C00215E0BFFB174E
:200608001000051EE13FFC1700096740E0BFFA15E0BFFA1710001016E0BFF81710800317D0
:2006100010000826E0BFF81710800317E1FFFF17E1BFFE17E17FFD17E13FFC17103EE83A72
:20061800000001060005883AE0BFFA150000020600BFFB44E0BFFA15E0BFFA171000090EBB
:20062000E13FF91700098BC0000963801007883AE0BFFA170085C83A1880001500BFFFC40B
:2006280000000106E0BFF917E037883ADFC00117DF000017DEC00204F800283ADEFFFC049B
:20063000DFC00315DF000215DC000115DF000204E13FFE15E0BFFE17108000D01000111EA0
:20063800040000748428ED04E0BFFE17014003041009883A000A16808085883A10800204B9
:2006400010000015040000748428ED04E0BFFE17014003041009883A000A16808085883A22
:20064800100000150001883AE6FFFF04DFC00217DF000117DC000017DEC00304F800283A21
:20065000DEFFFA04DF000515DF000504E13FFF150005303AE0BFFC15E0FFFC1700BFFF8447
:200658001884703A1001703AE0BFFC17E0BFFB15E0BFFF17E0BFFD15E0BFFD171080001760
:20066000E0FFFD1718C0011710C00115E0BFFD1710800117E0FFFD1718C0001710C000158F
:20066800E0BFFD17E0FFFD1710C00115E0BFFD17E0FFFD1710C00015E0BFFB17E0BFFE15F8
:20067000E0BFFE171001703A0001883AE037883ADF000017DEC00104F800283ADEFFFB0490
:20067800DFC00415DF000315DF000304D0A00717E0BFFD15D0A0C81710800044D0A0C8151E
:2006800000002E06E0BFFD1710800017E0BFFE15E0BFFD171080040310803FCC10000426FB
:20068800D0A0C8171000021EE0BFFD1710000405E0BFFD1710800217D0E0C81718801D3631
:20069000E0BFFD171080040310803FCC1000191EE0BFFD1710800317E0FFFD1718C00517DA
:200698001809883A103EE83AE0BFFF15E0BFFF171000031EE13FFD170009940000000D0672
:2006A000E0BFFD1710C00217E0BFFF171887883AE0BFFD1710C00215E0BFFD1710C0021752
:2006A800D0A0C8171880032EE0BFFD1700C0004410C00405E0BFFE17E0BFFD15E0FFFD1732
:2006B000D0A0070418BFCF1E0001883A0001883AE037883ADFC00117DF000017DEC002043B
:2006B800F800283ADEFFFF04DF000015D839883A000170FA0001883AE037883ADF00001724
:2006C000DEC00104F800283ADEFFFA04DFC00515DF000415DF000404E13FFE15E17FFF1503
:2006C800E0BFFF1710800017E0BFFC15E13FFE170009E64010800044E0BFFD1500000D060A
:2006D000E0BFFC1710800217E0FFFD17180D883AE17FFE171009883A0009E3401000021E29
:2006D800E0BFFC1700000706E0BFFC1710800017E0BFFC15E0FFFC17E0BFFF1718BFF01EAE
:2006E0000005883AE037883ADFC00117DF000017DEC00204F800283ADEFFFB04DFC004151B
:2006E800DF000315DF000304E13FFF15D0A00017E0BFFD1500003106E0BFFD171080021716
:2006F0001009883A0009E640E0BFFE15E0BFFD1710C00217E0BFFE1710BFFFC41885883AED
:2006F8001080000310803FCC1080201C10BFE00410800BD81000031EE0BFFE1710BFFFC44B
:20070000E0BFFE15E0BFFE17E0FFFF171885883A1080000310803FCC1080201C10BFE00472
:2007080010800BE01000081EE0BFFE17E0FFFF171885883A1080000310803FCC1080201C1E
:2007100010BFE00410000A1EE0BFFD1710800217E0FFFE17180D883AE17FFF171009883A56
:200718000009E3401000021EE0BFFD1700000706E0BFFD1710800017E0BFFD15E0FFFD17A7
:20072000D0A0000418BFCC1E0005883AE037883ADFC00117DF000017DEC00204F800283A39
:20072800DEFFFA04DFC00515DF000415DC000315DF000404E13FFE1500BFFA04E0BFFD15A9
:20073000E03FFC1500001D06040000748428ED04E0BFFC17014003041009883A000A1680CC
:200738008085883A108000171000111E040000748428ED04E0BFFC17014003041009883A0A
:20074000000A16808085883AE0FFFE1710C00015D0E00417E0BFFC171880020EE0BFFC1782
:20074800D0A00415E0BFFC17E0BFFD1500000606E0BFFC1710800044E0BFFC15E0BFFC17B1
:2007500010800810103FE01EE0BFFD17E6FFFF04DFC00217DF000117DC000017DEC00304B2
:20075800F800283ADEFFFE04DF000115DF000104E13FFF15E0BFFF1710BFFE8410C0042839
:2007600018001A1E100690BA0080007410A767041885883A108000171000683A00009DDC82
:2007680000009DDC00009DEC00009DEC00009DEC00009DDC00009DE400009DEC00009DDC61
:2007700000009DDC00009DEC00009DDC00009DE400009DEC00009DEC00009DDC008000441E
:20077800000003060005883A000001060005883AE037883ADF000017DEC00104F800283AF7
:20078000200B883A000F883A000D883A0009883A0009E801DEFFFE04000B883ADC00001572
:20078800DFC001152021883A0009FD808009883A000A1900218D883A2180082620800003C3
:2007900028C0000310C0022610C5C83AF800283A2100004429400044003FF7060005883A20
:20079800F800283A2005883A10C000071800022610800044003FFC061105C83AF800283A62
:2007A0000080007410A98E0410C00017DEFFF904DC0000151C000C17DD400515DD000415DC
:2007A800DCC00315DC800215DC400115DFC00615202B883A2823883A3027883A3825883ACC
:2007B0001029883A8000021E1C000D041C000C158080011700C007C41880110E0080003416
:2007B800108000041000021E00BFFFC40000310601002304000000001021883A103FFA261A
:2007C00010000115A080001710C00C1780C0001514000C1580002215A8001D260000060691
:2007C800A8001B26808022171000091E0080003410800004103FEC260100420400000000C8
:2007D000103FE92610004015100041158080221581400117010000442947883A18C7883AB8
:2007D80010C7883A1CC000152148983A11404017290AB03A114040151C80201500C00084BC
:2007E000A8C0031E10C041171908B03A110041158080011710C00044108000841085883A3F
:2007E8001085883A80C0011580A1883A844000150005883ADFC00617DD400517DD000417D4
:2007F000DCC00317DC800217DC400117DC000017DEC00704F800283ADEFFF504DD000515C7
:2007F80005000074DC800315DFC00A15DF000915DDC00815DD800715DD400615DCC0041519
:20080000DC400215DC000115D90000152825883AA5298E04A44000178CC00C178C400C0410
:20080800980045269C0001170090003410BFFFC49D40221785BFFFC480A1883A8421883A5C
:200810008421883AAC2F883A840002049C21883AB000271690000726A800041EB5BFFFC410
:20081800BDFFFF04843FFF04003FF906B9002017913FFA1E9900011782000017213FFFC4B8
:20082000B100021E9D8001150000010680000015403FF2269F000117A80005260080004433
:200828001592983AA9404017494A703A2800021E403EE83A00000906A90041174908703AC7
:200830002000041EB9400017D9000017403EE83A00000206B9000017403EE83A990001179D
:20083800E13FCC1E89000017993FDC26003FC906008000341080000410000F269940011790
:20084000990000172800091E2000082689000015A8000226A809883A000000009809883A07
:20084800000000008CC00017003FBD069823883A2027883A003FBA06DFC00A17DF000917E7
:20085000DDC00817DD800717DD400617DD000517DCC00417DC800317DC400217DC000117C8
:20085800DEC00B04F800283A0005883A2000072620C0004C2008D07A180001261145883A70
:20086000294B883A203FFA1EF800283AF800283ADEFFFD04DF000215DF000204E13FFF152A
:200868000001883AE0BFFF17E0BFFE15E0BFFE1710000226002AF07000000106002AF0B0FF
:20087000003FFF0600000A0D3D3D3D3D3D3D3D3D3D3D3D3D3D3D3D3D3D3D3D3D3D3D3D3D55
:200878003D3D3D3D3D3D3D3D3D3D3D3D3D3D3D3D3D3D3D3D3D3D3D3D00000A0D4E4D2020B6
:200880002054534969676944655220746E676F636F6974692D2D206E6E695420204C4D79BF
:200888000D436F530000000A4C4D202037203A502D2034383231203E4C282038796B61658A
:200890004C6552202D2029553031203E00000A0D6F4220203A6472613145442074532D3024
:2008980061646E61282064726C63794320656E6F0A0D2956000000003D3D3D3D3D3D3D3D23
:2008A0003D3D3D3D3D3D3D3D3D3D3D3D3D3D3D3D3D3D3D3D3D3D3D3D3D3D3D3D3D3D3D3D98
:2008A8003D3D3D3D3D3D3D3D0A0D0A0D00000000646E65533438372074796220282073653E
:2008B00032783832726720386373796120656C6167616D692E2E2965000A0D2E67616D4996
:2008B80065722065766965630D2E64650000000A20200A0D64657250657463696964206437
:2008C0003A7469670000002020200A0D726F6353203A7365000000000000005B00003D5D65
:2008C800000000200A0D0A0D000000007665642F61746A2F61755F67305F747200000000D5
:2008D0007665642F61746A2F61755F67305F7472000000007665642F6C756E2F0000006CC3
:2008D800000000000000000000000000000000000000000000000000000000000000000000
:2008E0000000000000000000000000000000000000000000000000000000000000000000F8
:2008E8000000000000000000000000000000000000000000000000000000000000000000F0
:2008F0000000000000000000000000000000000000000000000000000000000000000000E8
:2008F8000000000000000000000000000000000000000000000000000000000000000000E0
:200900000000000000000000000000000000000000000000000000000000000000000000D7
:200908000000000000000000000000000000000000000000000000000000000000000000CF
:200910000000000000000000000000000000000000000000000000000000000000000000C7
:200918000000000000000000000000000000000000000000000000000000000000000000BF
:200920000000000000000000000000000000000000000000000000000000000000000000B7
:200928000000000000000000000000000000000000000000000000000000000000000000AF
:200930000000000000000000000000000000000000000000000000000000000000000000A7
:2009380000000000000000000000000000000000000000000000000000000000000000009F
:20094000000000000000000000000000000000000000000000000000000000000000000097
:2009480000000000000000000000000000000000000000000000000000000000000000008F
:20095000000000000000000000000000000000000000000000000000000000000000000087
:2009580000000000000000000000000000000000000000000000000000000000000000007F
:20096000000000000000000000000000000000000000000000000000000000000000000077
:2009680000000000000000000000000000000000000000000000000000000000000000006F
:20097000000000000000000000000000000000000000000000000000000000000000000067
:2009780000000000000000000000000000000000000000000000000000000000000000005F
:20098000000000000000000000000000000000000000000000000000000000000000000057
:2009880000000000000000000000000000000000000000000000000000000000000000004F
:2009900000000000000000000000A340000000000000000000008BE400008C440000000025
:200998000000000000000000000130380000A61C0000A61C0000A35400000000000000005B
:2009A000000000000000904C0000000000000000000000000000A38C00000000000000002C
:2009A8000000A38C00000000000000000000A38C00000000000000000000000000000000D1
:2009B000000000000000000000000000000000000000000000000000000000000000000027
:2009B80000000000000000000000000000000000000000000000000000000000000000001F
:2009C000000000000000000000000000000000000000000000000000000000000000000017
:2009C80000000000000000000000000000000000000000000000000000000000000000000F
:2009D000000000000000000000000000000000000000000000000000000000000000000007
:2009D8000000000000000000000000000000000000000000000000000000000000000000FF
:2009E0000000000000000000000000000000000000000000000000000000000000000000F7
:2009E8000000000000000000000000000000000000000000000000000000000000000000EF
:2009F0000000000000000000000000000000000000000000000000000000000000000000E7
:2009F8000000000000000000000000000000000000000000000000000000000000000000DF
:200A00000000000000000000000000000000000000000000000000000000A5F40000A5FC9C
:200A08000000A6040000000000000000000000000000000000000000000000000000000024
:200A10000000000000000000000000000000000000000000000000000000000000000000C6
:200A18000000000000000000000000000000000000000000000000000000000000000000BE
:200A20000000000000000000000000000000000000000000000000000000000000000000B6
:200A28000000000000000000000000000000000000000000000000000000000000000000AE
:200A3000000000000000000000000000000000000000000000000004000000000001000A97
:200A3800000000000002000A0000000000000000000000000000A6140000A6140000A38CEF
:200A40000000A38CFFFFFFFF00000000FFFFFFFF0000A6300000A6300000A5340000A53411
:200A480000000000000000000000000000000000000000000000000000000000000000008E
:200A5000000000000000000000000000000000000000000000000000000000000000000086
:200A580000000000000000000000000000000000000000000000000000000000000000007E
:200A6000000000000000000000000000000000000000000000000000000000000000000076
:00000001FF
